:100000000C94A3070C94DB070C94DB070C94C72813
:100010000C94DB070C94DB070C94DB070C94DB07D8
:100020000C94DB070C94DB070C94CE170C948A1706
:100030000C94F5210C94DB070C94DB070C94DB0784
:100040000C94DB070C94DB070C94DB070C94DB07A8
:100050000C94DB070C94A7180C94DB070C94DB07BB
:100060000C94DB070C94DB070C94DB070C94DB0788
:100070000C94DB070C94DB070C94DB070C94DB0778
:100080000C94DB070C94DB070C94DB070C94DB0768
:100090000C94DB070C94DB070C94DB070C94DB0758
:1000A0000C94DB070C94DB070C94DB0700000000CA
:1000B0001700150008001A001400290000000000B5
:1000C0000A0009410742164304441A7C000000005C
:1000D0000500190006001B001D000000000FE000D5
:1000E000E300E2000000000000000000000000004B
:1000F0001C0018000C00120013002A000000000071
:100100000B000D000E000F0033001B7C00000000F0
:100110001100100036003700380000000E112800D2
:100120002C002B0000000000000000000000000078
:1001300001000100010001000100010000000000B9
:10014000010001000100010016070100AE000100DE
:10015000010001000100010001000100A8000100F0
:10016000010001000100000000000000000000008C
:10017000A6000100010001000100010000000000D4
:1001800001005000510052004F000100A900BD00C5
:1001900001000100DA00D90001000100AA00BE0040
:1001A000010001000100000000000000000000004C
:1001B0000100010001000100010001000000000039
:1001C000010056000100570063000100010001001A
:1001D0000100010001000100010001000100010017
:1001E000010001000100000000000000000000000C
:1001F00001005F0060006100550001000000000088
:1002000062005C005D005E0067000100010001000B
:10021000010059005A005B00540001000100010078
:1002200001000100010000000000000000000000CB
:1002300001000100010001000100010000000000B8
:1002400031002D002D0201003502010001000100E6
:100250000100010001000100010001000100010096
:10026000010001000100000000000000000000008B
:100270003400010023020100010001000000000021
:1002800034021E02240231022F023002010001005A
:100290003500210220021F022F0030000100010062
:1002A000010001000100000000000000000000004B
:1002B0000100010001000100010001000000000038
:1002C000010039005300010001000100010001009C
:1002D0000100010001000100010001000100010016
:1002E000010001000100000000000000000000000B
:1002F00001004000410042004300010000000000F6
:1003000001003D003E003F004400010001000100EB
:1003100001003A003B003C004500010001000100E3
:1003200001000100010000000000000000DA12815D
:10033000FFD9F1DB20A4A62EAF00A0C000A1C80009
:10034000AED580A83FD300408D14200000000000EF
:100350000000000000000000008080C0E0F0707825
:10036000383C1C1E0E0E0E07070707070707070776
:10037000070707070707070E0E0E1E1C3C3878708C
:10038000F0E0C080800000000000000000000000DD
:10039000000000000000000000000000000000005D
:1003A000000000000000000000000000000000004D
:1003B000000000000000000000000000000000003D
:1003C000000000000000000000000000000000002D
:1003D000000000C0E0F07C3E1F0F07030180C0E07A
:1003E000F078383C1C1E0E0E070787E77F1FFFFFC3
:1003F0001F7FE78707070E0E1E1C3C3878F0E0C011
:10040000800103070F1F3E7CF0E0C00000000000E9
:1004100000000000000000000000000000000000DC
:1004200000000000000000000000000000000000CC
:1004300000000000000000000000000000000000BC
:1004400000000000000000000000000000000000AC
:10045000F0FCFF1F07010000C0F0FCFEFFF7F3B146
:10046000B03030303030303078FE87010000FFFF90
:1004700000000187FE7830303030303030B0B1F3DA
:10048000F7FFFEFCF0C0000001071FFFFCF00000BA
:10049000000000000000000000000000000000005C
:1004A000000000000000000000000000000000004C
:1004B000000000000000000000000000000000003C
:1004C000000000000000000000000000000000FF2D
:1004D000FFFF0000000000FEFFFF0101071E78E1A2
:1004E00081838386868C8C9898B1B7FEF8E0FFFFF5
:1004F000E0F8FEB7B198988C8C8686838381E1788A
:100500001E070101FFFFFE0000000000FFFFFF00CB
:10051000000000FFFF0000C0C030300000F0F0001D
:100520000000000000F0F00000F0F0C0C0303030FB
:1005300030C0C000003030F3F30000000000003095
:100540003030303030C0C00000000000000000FF3C
:10055000FFFF00000000007FFFFF8080E0781E8723
:1005600081C1C16161313119198DED7F1F07FFFF15
:10057000071F7FED8D191931316161C1C181871E5E
:1005800078E08080FFFF7F0000000000FFFFFF0099
:100590000000003F3F03030C0C303000000000332C
:1005A00033333333330F0F00003F3F0000000000B0
:1005B000000000000030303F3F303000000C0C33B2
:1005C00033333333333F3F000000000000000000AE
:1005D0000F3FFFF8E0800000030F3F7FFFEFCF8D5C
:1005E0000D0C0C0C0C0C0C0C1E7FE1800000FFFFAE
:1005F000000080E17F1E0C0C0C0C0C0C0C0D8DCF40
:10060000EFFF7F3F0F03000080E0F8FF3F0F000087
:1006100000000000000000000000000000000000DA
:1006200000000000000000000000000000000000CA
:1006300000000000000000000000000000000000BA
:1006400000000000000000000000000000000000AA
:1006500000000003070F3E7CF8F0E0C080010307B4
:100660000F1E1C3C38787070E0E0E1E7FEF8FFFFF9
:10067000F8FEE7E1E0E0707078383C1C1E0F0703DD
:100680000180C0E0F0F87C3E0F070300000000008E
:10069000000000000000000000000000000000005A
:1006A000000000000000000000000000000000004A
:1006B000000000000000000000000000000000003A
:1006C000000000000000000000000000000000002A
:1006D000000000000000000000010103070F0E1ED3
:1006E0001C3C3878707070E0E0E0E0E0E0E0E0E0D2
:1006F000E0E0E0E0E0E0E070707078383C1C1E0E56
:100700000F070301010000000000000000000000CE
:1007100000000000000000000000000000000000D9
:1007200000000000000000000000000000000000C9
:1007300000000000000000000000000000000000B9
:100740000000000000000000000000002020202029
:10075000202020005343524C434B200020202020D7
:10076000202020004341504C434B200020202020DB
:10077000202020004E554D4C434B2000556E6465A3
:1007800066696E65640A0041646A7573740A00469E
:10079000756E6374696F6E0A0053796D0A004E615D
:1007A000760A00436F6C656D616B2D44480A004406
:1007B000766F72616B0A005157455254590A004CCA
:1007C000617965723A2000726576310A0A004B79C8
:1007D0007269612000808182838485868788898A06
:1007E0008B8C8D8E8F9091929394A0A1A2A3A4A59F
:1007F000A6A7A8A9AAABACADAEAFB0B1B2B3B4C016
:10080000C1C2C3C4C5C6C7C8C9CACBCCCDCECFD060
:10081000D1D2D3D400000101010101010101010283
:1008200002020202020202020303030303030303A0
:10083000040404040404040505050505060606066B
:1008400006070707070708080808090909090A0A27
:100850000A0B0B0B0C0C0C0D0D0D0E0E0E0F0F0FCB
:100860001010111111121213131414151516161756
:1008700017181819191A1A1B1B1C1D1D1E1E1F20C4
:1008800020212222232424252626272829292A2B11
:100890002C2D2D2E2F303132323334353637383936
:1008A0003A3B3C3D3E3F4041424344454647484930
:1008B0004A4C4D4E4F50515354555658595A5B5D02
:1008C0005E5F616264656668696B6C6D6F707273A0
:1008D0007577787A7B7D7E8082838587888A8C8E07
:1008E0008F91939596989A9C9EA0A2A3A5A7A9AB39
:1008F000ADAFB1B3B5B7BABCBEC0C2C4C6C9CBCD2B
:10090000CFD1D4D6D8DBDDDFE2E4E7E9EBEEF0F3DC
:10091000F5F8FAFDFF00AF00AE05010980A10185E1
:100920000319012AB700150126B70095017510813A
:1009300000C0050C0901A101850419012AA00215B6
:100940000126A002950175108100C005010906A1CC
:1009500001050719E029E7150025019508750181B2
:10096000029501750881010507190029FF15002668
:10097000FF009506750881000508190129059505F0
:1009800075019102950175039101C009023B0002B6
:100990000100A0FA0904000001030101000921116E
:1009A000010001224000070581030800010904013C
:1009B000000103000000092111010001223200079B
:1009C00005820320000112010002000000081D8DB5
:1009D0009D9D01000102000116034B007900720089
:1009E000690061002000720065007600310000009F
:1009F0001003730070006C00690074006B006200EB
:100A000000000403090407087F0807003E5B4F5BF2
:100A10003E003E6B4F6B3E001C3E7C3E1C00183C73
:100A20007E3C18001C577D571C001C5E7F5E1C001E
:100A300000183C180000FFE7C3E7FF000018241867
:100A40000000FFE7DBE7FF0030483A060E002629EA
:100A500079292600407F05050700407F05253F00D6
:100A60005A3CE73C5A007F3E1C1C0800081C1C3EF8
:100A70007F0014227F2214005F5F005F5F00060981
:100A80007F017F00006689956A0060606060600099
:100A900094A2FFA2940008047E04080010207E2087
:100AA000100008082A1C0800081C2A0808001E104C
:100AB000101010000C1E0C1E0C0030383E38300098
:100AC000060E3E0E060000000000000000005F0061
:100AD0000000000700070000147F147F1400242A80
:100AE0007F2A120023130864620036495620500002
:100AF000000807030000001C224100000041221CE6
:100B000000002A1C7F1C2A0008083E0808000080FC
:100B1000703000000808080808000000606000004D
:100B20002010080402003E5149453E0000427F402B
:100B300000007249494946002141494D33001814CB
:100B4000127F10002745454539003C4A494931008C
:100B500041211109070036494949360046494929CA
:100B60001E000000140000000040340000000008D7
:100B7000142241001414141414000041221408001B
:100B80000201590906003E415D594E007C121112C6
:100B90007C007F49494936003E41414122007F4166
:100BA00041413E007F49494941007F09090901004F
:100BB0003E41415173007F0808087F0000417F419A
:100BC00000002040413F01007F08142241007F4087
:100BD000404040007F021C027F007F0408107F001D
:100BE0003E4141413E007F09090906003E41512135
:100BF0005E007F0919294600264949493200030150
:100C00007F0103003F4040403F001F2040201F0065
:100C10003F4038403F006314081463000304780425
:100C200003006159494D4300007F414141000204E6
:100C300008102000004141417F000402010204002D
:100C40004040404040000003070800002054547812
:100C500040007F2844443800384444442800384445
:100C600044287F0038545454180000087E090200BC
:100C700018A4A49C78007F080404780000447D40F8
:100C800000002040403D00007F102844000000414B
:100C90007F4000007C04780478007C08040478001D
:100CA000384444443800FC1824241800182424181C
:100CB000FC007C0804040800485454542400040434
:100CC0003F4424003C4040207C001C2040201C006D
:100CD0003C4030403C004428102844004C90909008
:100CE0007C004464544C440000083641000000007D
:100CF00077000000004136080000020102040200F3
:100D00003C2623263C00000000000000404040F04C
:100D1000F8F8FF38FFF8F83FF8F8FF38FFF8F8F078
:100D200040404000000000000080C0C0C0800000C3
:100D3000C0C08000000080C0C000C0C0000080C0F3
:100D4000C00000000000C0C0C0C0C000C0C00000A3
:100D50000000000000000000000000000000000093
:100D60000000000000000000000000000000000083
:100D70000000000000000000000000000000000073
:100D80000000000000C0F0F8FC3E1E06010000005C
:100D90007F4141417F007F4141417F000080C0E0B1
:100DA0007E5B4F5BFEC00000C000DCD7DEDEDED71E
:100DB000DC00C00000000000000000000000000097
:100DC000000000000000000000000000494949FF49
:100DD000FFFFFFE0DFBFBF00BFBFDFE0FFFFFFFFA0
:100DE00049494900000000001F3F6060E0BF1F004C
:100DF0007F7F071E381E077F7F007F7F0E1F3B719E
:100E00006000000000007F7F0C0C0C007E7E007FE5
:100E10007E0303007F7E03037E7E03037F7E000F3D
:100E20003E703C063C703E0F00327B49493F7E00DD
:100E30007F7E0303001E3F69696F260000000000EB
:100E40000000000000030F1F3F3C787060000000AE
:100E50007F4141417F007F4141417F00307B7F786E
:100E600030202030787F3B0003000F7F0F0F0F7F73
:100E70000F00030000000000000000000000000060
:100E80000000000000000000000000000101010758
:100E90000F0F7F0F7F0F0F7E0F0F7F0F7F0F0F073B
:100EA000010101000000000000000000000101003D
:100EB0000000000000000000000000000000000032
:100EC0000000000000000000000000000000000022
:100ED0000000000000000000000000000000000012
:100EE0000000000000000000000000000000000002
:100EF00000000000000000000000000000000000F2
:100F000000000000000000000000000000000000E1
:100F100000000000000000000000000000000000D1
:100F200000000000000000000000000000000000C1
:100F300000000000000000000000000000000000B1
:100F400000000000000011241FBECFEFDAE0DEBF7A
:100F5000CDBF04B603FE18C080914E0790914F0795
:100F6000A0915007B09151078730904BA740B04BEC
:100F700059F410924E0710924F071092500710929A
:100F80005107E0E0F8E3099511E0A0E0B1E0E0E30B
:100F9000F6E502C005900D92A63BB107D9F727E010
:100FA000A6EBB1E001C01D92AE34B207E1F70E949A
:100FB0001C220C94BB2A0C940000E8EDF0E0808128
:100FC0008E7F80831092E2001092DA001092E1008E
:100FD000A0EEB0E08C9181608C9380818F778083CC
:100FE00019BCA7EDB0E08C918E7F8C9380818F7EB1
:100FF00080831092290308952091E4003091E50048
:1010000095E6A9012091EC00822F817020FF06C097
:101010008091E80080FF06C080E008952091E800FC
:1010200022FD1AC080913603882389F0853089F02B
:101030008091EB0085FD0FC02091E4003091E50028
:1010400042175307F9F29150E1F684E0089582E0E7
:10105000089583E0089581E008958091380387FF23
:1010600013C08091E80082FF06C08091E8008B7772
:101070008093E80004C0809136038111F2CF089577
:10108000809136038823D9F38091E80080FFF8CF60
:101090008091E8008E77ECCF982F9093E900242F71
:1010A000762F50E0891731F07091EC002091ED001F
:1010B0005091F00021FD07C09F5F973071F780933A
:1010C000E90081E008953091EB003E7F3093EB0022
:1010D0003091ED003D7F3093ED003091EB003160B9
:1010E0003093EB007093EC002093ED005093F000F0
:1010F0002091EE0027FDE0CF80E00895B0E0A0E071
:10110000E4E8F8E00C94012AC8EDD0E088818F7EF5
:101110008883E7EDF0E080818160808384E082BF96
:1011200081E08093290388818E7F888302EE10E01E
:10113000F80110821092DA0081EEC82ED12CF6014F
:10114000108288818F7788838881806888838881EE
:101150008F7D888319BC109236031092370310924A
:1011600035031092340390EEE92EF12CF7018081C3
:101170008B7F808388818160888342E060E080E0AB
:101180000E944C08F60180818E7F8083F801808167
:1011900081608083808188608083F70180818E7F79
:1011A0008083888180618883CDB7DEB7E8E00C94C6
:1011B0001D2AFC0180913E0390913F0386179707FB
:1011C000A0F06115710529F49091E8009E77909345
:1011D000E80090E06115710551F4911108C080910B
:1011E000E80082FF34C080E00895BC01F2CF809116
:1011F00036038823C1F18530C1F18091E80083FD79
:1012000030C08091E80082FDEACF8091E80080FF45
:10121000E1CF8091F3002091F200382F6115710524
:1012200019F02830310558F091E02830310509F0E7
:1012300090E02091E8002E772093E800CBCF8191B9
:101240008093F100615071092F5F3F4FE7CF80918C
:101250003603882341F0853041F08091E80083FF18
:10126000BECF81E0089582E0089583E00895089557
:1012700080912B0308952FB7F89460912503709106
:10128000260380912703909128032FBF08959C0186
:10129000FC0132969FEF80E04191461751F09F3F4D
:1012A00019F4411101C0982F8F5F8630A9F79F3F35
:1012B00009F40895290F311D97FD3A95F9016283CC
:1012C0000895A3E0B0E0E7E6F9E00C94072A209146
:1012D00022033091230328173907A1F090932303A9
:1012E00080932203E0912003F0912103309751F085
:1012F00024E029839B838A830680F781E02DCE0139
:10130000019609952396E2E00C94232AA3E0B0E02D
:10131000ECE8F9E00C94072A20911E0330911F039A
:1013200028173907A1F090931F0380931E03E091C3
:101330002003F0912103309751F023E029839B8310
:101340008A830680F781E02DCE01019609952396C8
:10135000E2E00C94232AFC01680F791F8FEF91E3E0
:101360002191822728E030E087FF09C0880F892774
:1013700021503109C9F7E617F70791F70895880F4B
:10138000F7CFFA01811101C0FB0109950895809101
:101390001303982F9E7F39F480911303817082602C
:1013A0008093130308958430B8F7089580E008957A
:1013B000F894E82FE295EF70F0E031A1282F2F701C
:1013C00081E090E001C0880F2A95EAF7982F909568
:1013D000932391A392A1892B82A37894089590914D
:1013E0006D0292FF06C0282F28712830F9F4877FFC
:1013F000846093FF06C0282F28712831F1F4877E7E
:10140000846120916E0220FF06C0382F3871383079
:10141000D9F4877F816021FF06C0282F28712831E9
:10142000D1F4877E816194FD877E0895282F2471F1
:101430002430F9F68B7F8860DCCF282F247124318B
:1014400001F78B7E8861DDCF382F3171313019F78C
:101450008E7F8860E0CF282F2171213121F78E7E89
:101460008861E1CF7830C0F46830B0F48530A0F402
:1014700098E0899FF0011124E70FF11D83E0EE0F42
:10148000FF1F8A95E1F7E60FF11DEE0FFF1FE455F0
:10149000FF4F85919491089580E090E00895CF9357
:1014A000DF93EC0182389105B9F108F041C0813336
:1014B000910509F49FC050F58932910509F48FC058
:1014C0008A9709F49EC0C11520E5D20708F0BDC077
:1014D000C11530E4D30708F00AC1C03ED10508F0B9
:1014E000A5C0CD3CD10508F000C1C83AD10508F02F
:1014F0008FC0C53AD10508F0F0C0C130D10539F12F
:10150000209729F1C430D10510F546C085339105E7
:1015100009F460C0C997B9F680916D02837009F033
:1015200044C180916E0283FF12C0C9E2D0E00FC0B7
:10153000833E9105A1F178F4803E910509F1823E48
:10154000910509F0C0CF80916D0282FD21C0CE01CE
:10155000DF91CF910895863E910561F1873E910517
:1015600071F1843E910509F0AECF80916E0281FF4A
:10157000EECF80916D02C7EED0E084FD0DC0E7CFC5
:1015800080916D0280FD33C090916E0290FFDFCF9D
:10159000C3EED0E084FFDBCFD0E0C0E0D8CF8091B5
:1015A0006D0282FDFFC090916E0290FDFEC084FF2F
:1015B000CECFF2CF80916D0283FDDDCFC8CF809179
:1015C0006D0283FDF5C090916E0291FFF0CFC4EEE5
:1015D000D0E0BDCF80916D0285FFB9CFA6CF8091BD
:1015E0006D0285FDE8C080916E0283FFB0CFC9E334
:1015F000D0E0ADCF80916D0286FFA9CFCAE2D0E0E6
:10160000A6CF80916D0286FFA2CFC1E3D0E09FCF2D
:10161000C13CD10508F6C85AD0E0CC0FDD1FCD5A29
:10162000DE4F0990D881C02DD46491CFC11540E21E
:10163000D40708F0AAC0C11581E0D80708F087CF09
:10164000C83ED10508F483CFA7CFC03622E5D20724
:1016500018F5C03432E5D30708F053C0C03242E574
:10166000D40708F047C0C11582E5D80708F47FC049
:101670002C2F2695269540E2249F900111248C2F33
:101680008370C1E0D0E002C0CC0FDD1F8A95E2F785
:10169000C22BD32BDD685BCFC03A22E5D20760F4C2
:1016A000C03832E5D30708F441C0CF71D0E0DC2F59
:1016B000CC27C46FD06A4BCFC03C42E5D40708F4B6
:1016C0004AC0C03E82E5D80708F066CFDC2FCC27A1
:1016D000CC27DF71C06FD06A3ACFC55AD0E0C05B6B
:1016E000DE4FC881D0E0D06432CFD06530CFDF701C
:1016F000D06A2DCFCF71D0E0DC2FCC27C16FD06A5C
:1017000026CF2C2F26952695277080E2289F9001C2
:1017100011248C2F8370C1E0D0E002C0CC0FDD1FFC
:101720008A95E2F7C22BD32BDC6811CF2C2F26959C
:101730002695277040E2249F900111248C2F8370FE
:10174000C1E0D0E002C0CC0FDD1F8A95E2F7C22BCA
:10175000D32BDA68FCCE8C2F8F710E94EF09C82F33
:10176000D0E0DC2FCC27CC27DF71D062F0CE8C2FDD
:101770008F710E94EF0935E0D695C7953A95E1F74C
:10178000CF709C2FEC01D069E2CE8D2F8F710E941B
:10179000EF0990E0982F882788279F719C012C2BB8
:1017A000E901E3CFC2EED0E0D2CEC0EED0E0CFCEA2
:1017B000C6EED0E0CCCEC5E3D0E0C9CE0E943B0956
:1017C0000895809124028111109224020895809539
:1017D00090912302982390932302089580911802F8
:1017E0009091E701981301C008958F5F8770FACF39
:1017F000B0E0A0E0EEEFFBE00C94002A7C01009149
:101800008D0210918E0280918B0290918C02082B98
:10181000192BCFE0D0E0CC24C394D12CBC2EC60130
:101820000C2E02C0880F991F0A94E2F7802391239F
:10183000892B49F4219790F7B12C8B2DCDB7DEB7CA
:10184000E9E00C941C2AB7018C2F0E94320A0E94F6
:101850004F0A019779F3F1CFCF93DF93EC010E9408
:10186000F80BBE010E94320A0E944F0ADF91CF910D
:101870000895983070F5883060F528E0929FF00167
:101880001124E80FF11D6E2F677083E0F695E79540
:101890008A95E1F7EE0FFF1FEE0FFF1FEF53FE4F8C
:1018A00050E040E080E0219130E0062E02C0369505
:1018B00027950A94E2F721703327042E01C0220FE6
:1018C0000A94EAF7822B4F5F5F4F4430510559F776
:1018D000089580E00895983090F5883080F528E0EC
:1018E000929FF0011124E80FF11D2E2F277041E087
:1018F00001C0440F2A95EAF783E0F695E7958A95AB
:10190000E1F7EE0FFF1FEE0FFF1FEF53FE4F30E02A
:1019100020E070E05191DF011197CB01022E02C04F
:10192000969587950A94E2F781708195852784239F
:1019300085278C932F5F3F4F2430310559F7089549
:1019400090938E0280938D02089521E030E002C0D2
:10195000220F331F8A95E2F72095309580918D02F2
:1019600090918E02822393230E94A00C089590915F
:1019700019028095892380931902282F277091F4EA
:10198000282F082E000C330B9217130659F0909154
:101990006E0292FF07C08595859585950E94A50CDE
:1019A00010921902089521E030E002C0220F331F87
:1019B0008A95E2F780918D0290918E02822B932B73
:1019C0000E94A00C089590938C0280938B0208953E
:1019D000FC0183819481892B29F080819181892365
:1019E0008F3F51F480E00895843FE1F717C0883EAF
:1019F000A8F0813FB9F712C0808191810E942C0C20
:101A000092959F70963099F358F4925F9F70923040
:101A100048F7803F19F040F7883E20F781E00895AD
:101A20009A5FF4CFCF93DF93C0914C07D0914D07CD
:101A30008A30C1F420914303CE0186549340622F33
:101A400070E00E94E329281B822F66E00E942E2A64
:101A5000C82FC15018F4DF91CF91089580E20E9401
:101A6000120DF7CF8D30E9F4C654D34020914303D3
:101A7000622F70E0CE010E94E329281B822F9E0175
:101A8000280F311D2115344018F080E0D0E0C0E06F
:101A9000C80FD11DCA5BDC4FD0934D07C0934C07D4
:101AA000DACF96E0FE01A6E4B7E001900D929A9598
:101AB000E1F7803E08F458C086E0FE0111928A9555
:101AC000E9F7C0914C07D0914D0746E050E0BE01C8
:101AD00086E497E00E945D2A9E0126543340892BBC
:101AE00041F1C90146E0969587954A95E1F741E0B5
:101AF00050E0BA0102C0660F771F8A95E2F7CB016A
:101B00006091440370914503862B972BB9016B5F5D
:101B10007F4FE6E076956795EA95E1F702C0440FBE
:101B2000551F6A95E2F7842B952B9093450380937C
:101B300044032A5F3F4F40914303642F70E0C90183
:101B40000E94E329481B463010F4240F311D211553
:101B500074E0370710F030E020E02A5B3C4F309310
:101B60004D0720934C0777CFF6E08F9FB0011124EB
:101B70006A5F754F46E050E0CE010E94542AA1CF23
:101B8000CF93DF93EC01FE018491811103C0DF91BB
:101B9000CF9108950E94120D2196F5CF80912302D6
:101BA00090912202892B8093B8019091240299236D
:101BB00091F0892B8093B80120E08AEB91E0FC0141
:101BC0003191CF0131112F5FF1E0803C9F07B9F7D0
:101BD00021110E94E10B48E050E06AE172E088EBDD
:101BE00091E00E945D2A892BA9F088E0E8EBF1E002
:101BF000AAE1B2E001900D928A95E1F7E09120030D
:101C0000F0912103309731F00280F381E02D88EBD1
:101C100091E00995089510922302EAEBF1E086E045
:101C2000DF011D928A95E9F790E080E00E94860925
:101C300090E080E00E946109109222020E94CE0D85
:101C40000895AAE2B0E0E7E2FEE00C94062A88E3F9
:101C500093E02091F100FC012193CF01F3E0803467
:101C60009F07B9F780913903833009F470C0B8F445
:101C7000813009F447C0823009F4B1C08091E80096
:101C800083FF7EC280913803909139039A3008F027
:101C900077C2E92FF0E0E354F54D0C944E2A8A30D8
:101CA00009F48CC08B3009F46FC0893039F780910A
:101CB0003803813219F780913C0390913D030297DC
:101CC000E8F68091E800877F8093E8008091E80043
:101CD00082FF38C09091F3008091F200029731F4B6
:101CE0008091F100813011F0863021F48091F10073
:101CF00080932B038091E8008B778093E8000E940B
:101D00002D08BCCF80913803813A09F0B7CF80917C
:101D1000E800877F8093E80080913C0390913D0329
:101D2000892B61F468E08CE293E070E00E94D908AE
:101D30008091E8008B778093E800A0CF60E090E08E
:101D400080E0F3CF809136038111C0CF97CF80918F
:101D50003803813A09F092CF80913C0390913D0382
:101D6000892B09F08BCF8091E800877F8093E80072
:101D70008091E80080FFFCCF80914F018093F100BB
:101D80008091E8008E77B9CF80913803813209F0D5
:101D900075CF80913C0390913D03892B09F06ECF64
:101DA0008091E800877F8093E8000E942D08809151
:101DB0003A0380934F010E940B0E60CF809138034D
:101DC000813209F05BCF8091E800877F8093E80043
:101DD0000E942D0880913B0380932A034FCF80916E
:101DE0003803813A09F04ACF8091E800877F8093D9
:101DF000E8008091E80080FFFCCF80912A03BECFED
:101E0000803899F0823809F0BBC180913C038F7013
:101E1000873008F0B5C18093E9008091EB0085FB25
:101E2000882780F91092E90006C0809134039091D0
:101E30003503911182609091E800977F9093E800BC
:101E40008093F1001092F1008091E8008E7794C1A8
:101E5000882309F482C1823009F092C180913A034B
:101E6000811185C180913C038F702FEF280F2630A0
:101E700008F086C18093E9002091EB0020FF77C134
:101E8000933031F48091EB0080628093EB006FC15E
:101E90009091EB0090619093EB0021E030E001C065
:101EA000220F8A95EAF72093EA001092EA008091C7
:101EB000EB008860EACF811163C110913A031F776C
:101EC0008091E3008078812B8093E3008091E8008B
:101ED000877F8093E8000E942D088091E80080FFB2
:101EE000FCCF8091E30080688093E30082E01111D1
:101EF00083E08093360344C18058823008F040C1AB
:101F000080913A0390913B038C3D23E09207A1F529
:101F100083E08A838AE289834FB7F894DE011396BF
:101F200020E03EE051E2E32FF0E050935700E491CF
:101F300020FF03C0E295EF703F5FEF708E2F90E0BF
:101F4000EA30C0F0C7968D939D932F5F243159F7E7
:101F50004FBF8091E800877F8093E8006AE270E0DD
:101F6000CE0101960E94D9088091E8008B7780937A
:101F7000E80006C1C096E7CF40913C0350913D0375
:101F8000292F33272330310509F444C078F5213057
:101F9000310509F46FC08BE390E0EBE8F9E0223003
:101FA000310509F0EDC02091E800277F2093E8007B
:101FB00020913E0330913F038217930708F49C0160
:101FC00040E02115310509F064C0411162C08091E3
:101FD000E80082FDC9CF80913603882329F285303D
:101FE00019F28091E80083FFF2CFBECF2132310594
:101FF000A9F12232310509F0C3C04115510509F498
:1020000043C04130510509F0BBC082E390E0E9E1F3
:10201000F9E0C9CF992781309105C1F0009759F0B7
:10202000029709F0ADC0E8EDF9E0E4918E2F90E061
:10203000E8EDF9E007C0E2E0FAE0E4918E2F90E0ED
:10204000E2E0FAE0009709F49BC0ADCFE0EFF9E0E1
:10205000E4918E2F90E0E0EFF9E0F4CF41155105C7
:1020600071F04130510509F08BC089E090E0E6EB5A
:10207000F9E099CF82E190E0E6ECF9E094CF89E0D5
:1020800090E0EDE9F9E08FCF80E490E0EBE4F9E057
:102090008ACF80913603882309F466CF853009F40E
:1020A00063CF8091E80083FD5FCF8091E80082FDDF
:1020B0008ECF8091E80080FF84CF9091F3008091D3
:1020C000F2002115310519F08830910550F041E0FA
:1020D000089709F040E08091E8008E778093E8004F
:1020E00070CF44914093F10031962150310901960F
:1020F000E8CF803809F044C08091E800877F809362
:10210000E800809137038093F1009ECE811138C0A2
:1021100010913A031230A0F58091E800877F8093F8
:10212000E800109337030E942D08112311F084E07A
:1021300005C08091E30087FDFACF81E080933603EC
:1021400042E061EC81E00E944C0842E261EC82E0F6
:102150000E944C088091360313C080913A0381306D
:1021600079F481E0933009F080E080933503109298
:10217000E9008091E800877F8093E8000E942D08A5
:102180008091E80083FF0AC08091E800877F8093F8
:10219000E8008091EB0080628093EB00AA96E3E078
:1021A0000C94222A882321F00E94E70B0E94CE0D76
:1021B0000895882339F090912302982B909323025D
:1021C0000E94CE0D0895882391F19CEF980F913ACB
:1021D00080F4EAEBF1E020EC31E09191891303C047
:1021E000DF0111971C922E173F07B9F70E94CE0D01
:1021F000089590E2980F983050F4877091E001C0F4
:10220000990F8A95EAF7892F0E94E70BEFCF9BE59C
:10221000980F933028F490E080E00E94860908959A
:10222000885A893120F490E080E00E946109089585
:10223000CF93C82F8823B1F08CEF8C0F813A00F533
:10224000EAEBF1E080EC91E0DF012D91C21761F043
:102250008A179B07D1F76C2F88EB91E00E94470902
:102260000E94CE0DCF9108952191C21303C0DF01CA
:1022700011971C928E179F07B9F70E94CE0DEBCFD6
:1022800080E28C0F883068F4C77021E030E001C034
:10229000220FCA95EAF780912302822B80932302B2
:1022A000DFCFEBE5EC0FE33040F4F0E0E05BFE4F16
:1022B000808190E00E948609D5CFC85AC93190F636
:1022C000EC2FF0E0EE0FFF1FED5AFE4F8081918161
:1022D0000E946109C7CFB0E0A0E0E1E7F1E10C9412
:1022E000012A6C017B0164E670E088E70E944127C7
:1022F000EC0197FD12C010E000E0F601E00FF11FC5
:10230000849164E670E00E94AD27EC01892B29F4EA
:102310000F5F1F4F0E151F0581F70E942328CE0166
:10232000CDB7DEB7E8E00C941D2A80911C03909194
:102330001D03911103C091E089270895882369F056
:1023400062E070E087E199E00E946B11892B19F03F
:1023500080911C03089510921C0380911C03EBCF05
:10236000CF93C0911C0380911D038823D1F00E945C
:102370003B09605A75418F4F9F4F609318037093CC
:10238000190380931A0390931B03C11108C062E0E4
:1023900070E085E199E00E946B11892B29F0C091D2
:1023A0001C038C2FCF91089581E080931C03F7CFFD
:1023B0000F931F93CF93DF938B01EA019091360324
:1023C000943061F58093E9008FEF9091E80081509F
:1023D00095FD06C095ED9A95F1F700008111F5CFB6
:1023E0008091E80085FF1AC00E94FC07811111C08E
:1023F0008091E80085FD06C08091E8008E7780938B
:10240000E800F2CFF80181918F018093F1002197CC
:1024100079F78091E8008E778093E800DF91CF9183
:102420001F910F91089543E050E0BC0182E00E94AB
:10243000D8110895CF93DF93EC0148E050E0BC0140
:1024400081E00E94D81188E0FE01ACE2B3E0019087
:102450000D928A95E1F7DF91CF91089560914B013C
:102460008091130380FF20C080914A0143E0849F44
:10247000C001112489529D4F539A2BB1277F3BB144
:1024800038605FB7F894FC01649FE00DF11D1124E2
:10249000BF0168177907D1F45FBF8FE594E001971A
:1024A000F1F700C00000089580914C0190914D011A
:1024B00023E0829FF0011124E952FD4F8917A0F615
:1024C0001182108212828F5F3396F8CFFC01419106
:1024D000CF01E8E03BB9000000C047FF2BB9440F33
:1024E000000000C000C000C02BB900C0EA9591F701
:1024F000D0CFB0E0A0E0EFE7F2E10C94FF297C013F
:102500005B016A0180915C0201E010E08A3010F406
:102510000AE010E0C1E0D0E0B501C701F60109957D
:10252000811104C021960C171D072CF4CDB7DEB71E
:10253000EAE00C941B2ACC9F9001CD9F300D300D0A
:10254000112490E080E045E34A95F1F70000019600
:1025500082179307C1F7E0CF80912F02811110C03D
:102560008091D80080618093D8008AE18A95F1F744
:1025700000C08091D90080FF0AC081E080932F02C3
:1025800081E090912F02913009F080E0089582E07F
:1025900080932F020E94DD0710923603F1CF0E9434
:1025A000AC12882359F0E0912003F0912103309779
:1025B00029F00190F081E02D0995089580E00895BB
:1025C0001F93CF93DF93182FEB010E9418112097D0
:1025D00039F4812F0E94E310DF91CF911F9108956C
:1025E0008FE99FE00197F1F700C000002197EFCF3E
:1025F00081110CC070E0662331F060E089EA0E942E
:10260000E01281E0089560E08AEAF9CF8130C9F7ED
:1026100070E0662319F060E08EE4F1CF60E08BE4B7
:10262000EECF0E940B0E2FEF84E39CE02150804000
:102630009040E1F700C0000088E19CE00FB6F894FC
:10264000A895809360000FBE90936000FFCFCF925B
:10265000DF92EF92FF926B017C010E94C709B701E4
:10266000A60188E090E00E94992AFF90EF90DF9009
:10267000CF900895B0E0A0E0E0E4F3E10C94FD29F0
:10268000D82FC62F142F822E0091130300FF49C0AC
:10269000809114038D1308C080911503861304C024
:1026A00080911603841729F08091D602826080936E
:1026B000D602E02FE695F0E0ED54FE4F8081809346
:1026C000D402802F8E7F8230D1F4E12FF0E0EB5ED8
:1026D000F74FC1112BC02491F22FE22F00FF0FC042
:1026E00080914C0190914D0133E0839FD0011124E2
:1026F000A952BD4F891708F48EC00E942E12D093A4
:102700001403C093150310931603882051F06091B1
:1027100013037091140380911503909116030E9486
:102720002713CDB7DEB7ECE00C94192AEC2EF12C70
:10273000E4919E2ECE2ED12C26E0D29FC0011124F2
:102740002FEF30E0B9010E94E3298D2F90E0880F30
:10275000991FF5E5F69FA001F79F500D1124841BEA
:10276000950BB82EBB0CB80EA9014E195F094C9DF4
:10277000C0014D9D900D5C9D900D1124F92FCB9DB6
:10278000A0011124452F5527D901A41BB50BAC9DE1
:10279000A001AD9D500DBC9D500D1124D901AB1968
:1027A000B1095D01AE9CD001AF9CB00DBE9CB00DD7
:1027B0001124AB2FBB272A1B3B0B2C9DD0012D9D39
:1027C000B00D3C9DB00D11242B2F62307105A1F08E
:1027D00050F46115710509F481CF6130710581F004
:1027E000292FF52F7BCF6430710569F080F06630BA
:1027F000710509F473CFF4CF2E2FE92FFB2F6ECF85
:102800002E2FE52F6BCF292FFE2FEB2F67CFE92F30
:10281000F92D252F63CF1196EC9311972C931296D7
:10282000FC9312978F5F139665CFE3E1F3E043814A
:1028300021E1421B08F440E021E0628181810E9495
:102840003A130895E3E1F3E0438121E1420F08F4F4
:102850004FEF21E0628181810E943A130895E3E104
:10286000F3E0628121E1621B08F460E021E0438132
:1028700081810E943A130895E3E1F3E0628121E14E
:10288000620F08F46FEF21E0438181810E943A13C7
:102890000895E3E1F3E0818121E043816281885082
:1028A0000E943A130895E3E1F3E0818121E043813E
:1028B0006281885F0E943A130895809117038823EC
:1028C00019F08150809317036091130370911403E2
:1028D00080911503909116030E942713089580910B
:1028E0001703833018F48F5F8093170360911303ED
:1028F0007091140380911503909116030E94271381
:1029000008958091130380FF1EC0817082608093C0
:1029100013038091D60281608093D602662351F022
:102920006091130370911403809115039091160325
:102930000E94271320E040911603609115038091B7
:1029400014030E943A1308958091130386958150D1
:1029500009F481E061E00E948114089561E081E062
:102960000E9481140895E3E1F3E083E08083118203
:102970008FEF828383831482A4EDB2E012968C9150
:102980001297836012968C9360817181828193810A
:102990000E9427130895A4E0B0E0E1EDF4E10C9467
:1029A000052A40915002509151026091520270915B
:1029B00053022FB7F8948091250390912603A0919C
:1029C0002703B09128032FBF841B950BA60BB70BD1
:1029D00011E084369105A105B10590F10E94AC1279
:1029E000882399F10E943B096E5F7F4F8F4F9F4F65
:1029F00069837A838B839C8380912101909122014A
:102A0000845C9D4F4091200150E04530510510F00D
:102A100044E050E0BE016F5F7F4F0E946A2A84E06D
:102A200090E00E946D29182F882351F00E943B09E5
:102A3000609350027093510280935202909353021C
:102A4000812F2496E4E00C94212A0E943B090091F6
:102A50005D0210915E0220915F0230916002600F72
:102A6000711F821F931FC0CF4F925F926F927F9210
:102A70008F929F92AF92BF92EF92FF920F931F930C
:102A8000CF93DF937B01FB01408051806280738094
:102A90009FB7F8948090250390902603A090270379
:102AA000B09028039FBF84189508A608B708F4E6DD
:102AB0008F169104A104B10418F4C1E0442329F154
:102AC000C82F880FDD0BFE0183E0EE0FFF1F8A95F4
:102AD000E1F7E050FF4F81819281845C9D4F4081FE
:102AE00050E00417150708F4A801B9010E946A2AEA
:102AF000CE010E946D29C82F882339F00E943B091E
:102B0000F70160837183828393838C2FDF91CF9150
:102B10001F910F91FF90EF90BF90AF909F908F907B
:102B20007F906F905F904F900895A1E0B0E0EBE947
:102B3000F5E10C94052A80911C03898320914F02B2
:102B400090E041E02817190609F440E001E010E0A8
:102B50009E012F5F3F4F68E572E086E00E943415CA
:102B60002196E4E00C94212AA8E0B0E0EAEBF5E13C
:102B70000C94052A85E0E3E1F3E0DE011196019073
:102B80000D928A95E1F78091D4029091D502A0919F
:102B9000D6028E839F83A88741E08885811101C07A
:102BA00040E008E010E09E012F5F3F4F64E572E0D7
:102BB00085E00E94341581111092D6022896E4E037
:102BC0000C94212A4F925F927F928F929F92AF92A4
:102BD000BF92CF92DF92EF92FF920F931F93CF930A
:102BE000DF930F92CDB7DEB7C62E4A015901482EAA
:102BF000880F5508C2010E946D29782E882309F498
:102C000080C0C20133E0880F991F3A95E1F7FC01BB
:102C1000E050FF4F438150E04115510511F041E074
:102C200050E080509F4FFC0164817581645C7D4F52
:102C3000CE0101960E946A2AF4014081518162818D
:102C400073812FB7F8948091250390912603A0916A
:102C50002703B09128032FBF841B950BA60BB70B3E
:102C600084369105A105B10540F4B701C8010E9461
:102C7000AB099981891709F444C00C2C000CDD08BC
:102C8000C6010E946D29782E811113C0712C872DE9
:102C90000F90DF91CF911F910F91FF90EF90DF90F8
:102CA000CF90BF90AF909F908F907F905F904F900C
:102CB0000895C60123E0880F991F2A95E1F7FC01CA
:102CC000E050FF4F438150E0E416F50608F4A701F9
:102CD00080509F4FFC0164817581645C7D4FC5010C
:102CE0000E946A2AB701C8010E94AB099981891321
:102CF000CDCF0E943B09F40160837183828393836B
:102D0000C6CFA701B801C5010E946A2AC0CFA1E0C1
:102D1000B0E0EDE8F6E10C94002AEE24E394F12C07
:102D200002E412E09E012F5F3F4F48E352E063E070
:102D300082E00E94E215C82E882339F100E080E08D
:102D40001DC0D0906202D00E2D2D30E0A9014D574C
:102D50005D4F7A01E1E0F0E0EC0FFD1FE00FF11DA7
:102D60001081FA019081191BB12E1B149CF0912F38
:102D700017FD90E0191B111118C00F5F90916102AF
:102D80000917F8F281110E94DE0B8C2D2196E9E0E3
:102D90000C941C2ABA94F70180818F5F808360E0D5
:102DA0008D2D0E94F8128C2DE0CF1F5FF7018081DE
:102DB0008150808361E08D2D0E94F8128C2DDBCF35
:102DC000A4E0B0E0E6EEF6E10C94012A6B0184E0A9
:102DD000E82EF12C0DE312E09E012F5F3F4F44E3FC
:102DE00052E061E080E00E94E215882361F04981B1
:102DF0005A816B817C814093300250933102609301
:102E0000320270933302409130025091310260914E
:102E1000320270913302F6014083518362837383DF
:102E20002496E8E00C941D2A90916E0292FB2227D2
:102E300020F9281779F080FB92F990936E02609147
:102E40006D0270916E0284E090E00E94A52A82E0FB
:102E50000E94B70C089567EE7EEF90E080E00E943C
:102E6000A52A60E082E090E00E94872A60E083E08B
:102E700090E00E94872A10928C0210928B0260E0F0
:102E800074E184E090E00E94A52A60E086E090E092
:102E90000E94872A6FEF87E090E00E94872A40E037
:102EA00050E0BA0188E090E00E94992A60E08DE04D
:102EB00090E00E94872A40E050E0BA0188E190E06B
:102EC0000E94992A60E087E190E00E94872A40E012
:102ED00050E0BA018CE190E00E94992A70E060E035
:102EE00080E290E00E94A52A40E050E0BA0188E12B
:102EF00090E00E94992A40E050E0BA018FE090E013
:102F00000E94992A40E050E0BA0183E190E00E94DB
:102F1000992A08951F920F920FB60F9211242F93A2
:102F20003F934F935F936F937F938F939F93AF9351
:102F3000BF93CF93DF93EF93FF93D091E900DF70BE
:102F40008091EC00C82FC17080FDC0E81092E900AC
:102F50008091F000877F8093F00078940E94210E8A
:102F60001092E9008091F00088608093F000CD2BF2
:102F7000CF70C093E900FF91EF91DF91CF91BF91A6
:102F8000AF919F918F917F916F915F914F913F9101
:102F90002F910F900FBE0F901F9018951F920F92B8
:102FA0000FB60F9211242F933F934F935F936F931C
:102FB0007F938F939F93AF93BF93EF93FF938091F2
:102FC000E10082FF09C08091E20082FF05C080918C
:102FD000E1008B7F8093E1008091DA0080FF24C0C4
:102FE0008091D80080FF20C08091DA008E7F80938E
:102FF000DA008091D90080FF9DC080E189BD82E127
:1030000089BD09B400FEFDCF81E080933603809135
:103010002903811109C00E94DD070E947E0880916A
:10302000E20084608093E2008091E10080FF17C09D
:103030008091E20080FF13C08091E2008E7F809338
:10304000E2008091E20080618093E2008091D800EC
:1030500080628093D80019BC85E08093360380910C
:10306000E10084FF2BC08091E20084FF27C080E153
:1030700089BD82E189BD89B5982F917080FFFBCF12
:103080008091D8008F7D8093D8008091E1008F7E61
:103090008093E1008091E2008F7E8093E200809136
:1030A000E20081608093E20080913703882309F475
:1030B00047C084E080933603809136038091E1001D
:1030C00083FF27C08091E20083FF23C08091E1004D
:1030D000877F8093E10082E080933603109237036C
:1030E0008091E1008E7F8093E1008091E2008E7FED
:1030F0008093E2008091E20080618093E20042E0F0
:1031000060E080E00E944C088091F000886080932D
:10311000F000FF91EF91BF91AF919F918F917F91BF
:103120006F915F914F913F912F910F900FBE0F9034
:103130001F90189519BC109236031092290374CF72
:103140008091E30087FD93E090933603B5CF7894A8
:103150001F921FB61F9211248F939F93AF93BF931B
:103160008091250390912603A0912703B091280315
:103170000196A11DB11D8093250390932603A09372
:103180002703B0932803BF91AF919F918F911F9018
:103190001FBE1F9018959C014FB7F894809125038E
:1031A00090912603A0912703B09128034FBF821B63
:1031B000930B08952FB7F8948091250390912603DF
:1031C000A0912703B09128032FBF08950F931F9359
:1031D000CF93DF93C62FD42F022FFC018281882347
:1031E000A9F0609342030E94DA1890934103809300
:1031F0004003C77081E001C0880FCA95EAF70E94BA
:10320000D910DF91CF911F910F91089580914203C2
:10321000681334C080914003909141030E94CB1801
:10322000883C910558F510E21D0FCD17B9F080E2EA
:103230008C0F883040F4C77081E001C0880FCA95B8
:10324000EAF70E94D210183048F481E09D2F977061
:1032500001C0880F9A95EAF70E94D91070E060E0EB
:10326000802F0E94E012183060F6D77081E001C014
:10327000880FDA95EAF70E94D210C3CFC77081E0B9
:1032800001C0880FCA95EAF7F6CFA5E0B0E0EBE4FD
:10329000F9E10C94FD297C01FC0183819481892B47
:1032A00031F08081918189238F3F09F027C42596D1
:1032B000ECE00C94192A0E94F80B182F682F8981D2
:1032C0009A810E946B0C69817A81812F0E94320A57
:1032D0008C01FC01E851FC47E730F10588F5E95322
:1032E000F54D0C944E2A26E241EE61EEC7010E9494
:1032F000E618809119028770D1F2F7018281882344
:10330000B1F280916E0282FFD2CF82E00E94B70CB0
:10331000CECF27E245EE65EEE9CF26E241EE60EE44
:10332000E5CF27E245EE64EEE1CF26E241EE62EE24
:10333000DDCF27E245EE66EED9CF28E241E0EBCFC4
:10334000F7018281882309F400C410924203C80166
:103350009057839708F0E3C384E090E00E94812AAD
:1033600090936E0280936D02F801E150F047E232D3
:10337000F10520F4E253F54D0C944E2A80916D0234
:10338000816080936D0295C080916E028860809309
:103390006E028FC080916D028260F3CF80916D02CA
:1033A0008460EFCF80916D028860EBCF80916E02D8
:1033B0008160EDCF80916E028260E9CF80916D02D5
:1033C0008061DFCF80916D028062DBCF80916D02E2
:1033D0008064D7CF0E940B0E80916D028068D1CFA0
:1033E00080916D028C60CDCF80916E028360CFCFD3
:1033F00080916D028E7FC5CF80916E02877FC7CF8F
:1034000080916D028D7FBDCF80916D028B7FB9CF92
:1034100080916D02877FB5CF80916E028E7FB7CF8E
:1034200080916E028D7FB3CF80916D028F7EA9CF88
:1034300080916D028F7DA5CF80916D028F7BA1CF92
:103440000E940B0E80916D028F779BCF80916D0251
:10345000837F97CF80916E028C7F99CF80916D0290
:1034600082FB992790F921E0922790FB82F990FB4B
:1034700083F987CF80916E02982F909591708E7FFF
:10348000892B90FB81F983CF90916D02892F8F7BDF
:1034900096FF806476CF0E940B0E90916D02892F6B
:1034A00097FB87F980586DCF61E08EE090E00E9435
:1034B000872A60916D0270916E0284E090E00E9414
:1034C000A52A0E940B0E15CF60E0EFCF90916D0200
:1034D000892F8F7E94FF806154CF90916D02892F48
:1034E0008E7F90FF81604DCF90916E02892F877FF4
:1034F00093FF88604CCF8091C00181110FC089E299
:10350000EAEBF1E020EC31E09191891303C0DF0197
:1035100011971C922E173F07B9F714C385E3F0CF1C
:103520008091130380FF15C08E7F809313036091F9
:1035300013037091140380911503909116030E9458
:1035400027138091D60281608093D6020E942E12AA
:10355000D0CE81608093130361E086950E94811430
:10356000C8CE44EA54E16EEA74E10E94C109C1CEBA
:103570004EEA54E164EA74E1F8CF49E454E163E5CA
:1035800074E1F3CF43E554E169E474E1EECF4FE237
:1035900054E16CE374E1E9CF4CE354E16FE274E190
:1035A000E4CF45E154E162E274E1DFCF42E254E16D
:1035B00065E174E1DACF4DE554E16FE674E1D5CF12
:1035C0004FE654E16DE574E1D0CF61E081E0C6CF14
:1035D0000E940B0EFFEF24E33CE0F150204030400E
:1035E000E1F700C0000081E08093E00080E280937A
:1035F000D8001092C9008FE19EE40197F1F700C056
:10360000000087E090EBDC0180934E0790934F071A
:10361000A0935007B093510788E19CE00FB6F8944F
:10362000A895809360000FBE90936000FFCF6FEF6E
:103630007FEF90E080E00E94A52A0E941113809104
:103640006E0282FB882780F991E089270E94141777
:10365000F701828100811181882309F443C0C801E8
:103660000E94F80BD82E682FC8010E946B0CB8017D
:103670008D2D0E94320A0E944F0A8C01882EF7017C
:10368000A280958092943FE09322809119028770E6
:10369000C1F0CA2CAA20B1F0812F807F803421F0A4
:1036A00080E2800F883068F080916E0282FF09C04E
:1036B00082E00E94B70C809119028770CC24C394D9
:1036C0008111C12CB12EB2942FE0B222FBE0FB1588
:1036D00008F474C0EB2DF0E0E051F54D0C944E2A47
:1036E00080E0B4CFC8010E94390CD82EC0CF212F62
:1036F0002F70D22E107F19F0D29490EFD922AA20E9
:10370000B9F0DD2069F080E2800F883010F0811080
:1037100009C080912302D82AD09223020E94CE0DA4
:10372000802F4AC080912202D82AD0922202F6CF5E
:10373000802F0E94E310DD2009F440C0005E0830B5
:1037400010F0811004C08D2D0E94E70B06C0D094AC
:1037500080912202D822D09222020E94CE0D2EC049
:10376000312F3F70D32E107F103219F0D29480EF9A
:10377000D822882089F081E0881609F47CC0AA202C
:1037800009F486C0992009F47CC0F701858180FF87
:10379000C7CF8F70858375C020916E0222FD43C014
:1037A000AA20D9F1DD2039F080912302D82AD092C5
:1037B00023020E94CE0D80E00E941811EB2DE850EC
:1037C000FF0B349710F40E94CF12CC20A9F0809107
:1037D000190280FD11C0F7011282859585958595A6
:1037E0000E94D30CC7010E9445198091190285954A
:1037F000859585950E94A50C85E0F701DE0111965F
:1038000001900D928A95E1F709811A81C8010E9401
:10381000390CB8010E94320A4ACD80E00E94E310C0
:10382000DD2061F290CFAA20A1F0909124028D2D8D
:10383000892B911003C00E94D910C0CFE1E09E12E5
:10384000FACF22FFBBCF981709F4B8CF8093240298
:10385000B5CF911006C00E94E10B8D2D0E94D210B1
:10386000ADCFF1E09F1609F4A9CF8D2D0E94D210A3
:103870000E94E10BA3CFAA2031F025E0291508F41E
:103880009DCF8D2DD8CF34E0391508F497CFE5CFF3
:10389000992019F3F9E38F122AC12FEF37EE83E055
:1038A000215030408040E1F700C0000020C1812F4E
:1038B00086958695837061F0813009F07FCFC801CD
:1038C0009370A11002C080E090E00E94610976CF61
:1038D000C8019370A11002C080E090E00E948609A8
:1038E0006DCF812F837009F03FC0A11067CF402FAB
:1038F000429546954770440F440F802F8F7090E09B
:10390000042E02C0880F991F0A94E2F730E020E0ED
:1039100004FF09C02FE030E002C0220F331F4A9598
:10392000E2F720953095169516951370123099F0A0
:1039300078F440918B0250918C02113039F0822B37
:10394000932B842395230E94E30C38CF842B952B53
:10395000822B932BF8CF822B932B20918B023091CB
:103960008C0282279327EFCF8695AA2011F0812F12
:103970008170882309F422CF402F429546954770E5
:10398000440F440F802F8F7090E0042E02C0880FE8
:10399000991F0A94E2F730E020E004FF09C02FE00D
:1039A00030E002C0220F331F4A95E2F72095309590
:1039B000169516951370123099F078F440918D0297
:1039C00050918E02113039F0822B932B8423952352
:1039D0000E94A00CF3CE842B952B822B932BF8CF37
:1039E000822B932B20918D0230918E028227932778
:1039F000EFCF1F70AA2029F0812F0E94D30C802FB7
:103A00001ACF802F0E94D210812F0E94A50CD6CEF3
:103A1000802F92EF891699F1981570F0E0EF8E16CD
:103A2000D1F0F1EF8F1691F0AA2009F45BC091104C
:103A300077CE812F8F7127C023EF821639F134EFB3
:103A40008312F2CF80916E0282FD2EC0812F8F7182
:103A5000AA20D9F218C0AA2069F084E0891508F4D8
:103A6000ADCE1F7181E090E002C0880F991F1A95BA
:103A7000E2F7B8CF95E0991508F4A0CEF2CF812FE8
:103A80008F71A110C2CF0E94D30C98CE90E080E03D
:103A9000AA2009F49DCF1F7181E090E002C0880F39
:103AA000991F1A95E2F794CFAA2089F01F71812FF0
:103AB0000E94D30C80916E0282FF07C0E8E01E9F37
:103AC000C0011124836080931902812FDCCF81E033
:103AD0000E94B70CF1E0F91508F070CE82E00E9468
:103AE000B70C6CCE992039F0893309F4D6CE802FEB
:103AF0000E94E31063CE812F8F7187CF85E0DE01B6
:103B0000119601900D928A95E1F7F7012281898142
:103B10009A812111D0CB0E94390C182FD4CB0631B9
:103B2000FCE71F0729F5809123028A7A91E009F4C6
:103B300090E09093C00169E2811165E388EB91E028
:103B40000E9447090E94CE0DD4CB06312CE7120704
:103B500009F4D1CC809123028272F801E052F84737
:103B6000E531F10508F074CDE450F54D0C944E2A82
:103B700003303CE7130709F45ACD50F401159CE7D4
:103B8000190709F425CD01301C4709F456CD60CD45
:103B90000B35FCE71F0709F4A3CD0C352CE7120702
:103BA00009F44DCD0A351C4709F052CD81E04ECDC8
:103BB0001F93CF93DF938091E601807F09F049C086
:103BC0008091E301882309F444C080911802D091C8
:103BD000E7016091E1017091E201A091E401B091EF
:103BE000E501C62FC72316E0D81799F190E010978A
:103BF00011F0CF3F19F401968770F6CF189F90010E
:103C0000199F300D1124F901E851FE4F41814713EE
:103C1000F2CF40814613EFCF42814111ECCF438177
:103C200054814A1B5B0B483C510528F78091E60103
:103C30008F7080618093E601F901E351FE4F80812E
:103C40008F708061808381EE91E00E9445190E940F
:103C5000EE0BDF91CF911F910895A1E1B0E0E3E376
:103C6000FEE10C94FF298C0185E0F801DE011D9630
:103C700001900D928A95E1F7F801E28081EEA82E7D
:103C800081E0B82E6091E4017091E5016115710544
:103C900009F426C19091E1014091E201892F84232A
:103CA0008F3F09F41DC120813181C380D480F09001
:103CB000E301F601E61BF70BFF2009F4DCC080915D
:103CC000E601582F507FE83CF10508F09FC05111E4
:103CD0006BC0FE2C431314C0921312C0E11010C02D
:103CE0008F7080618093E601C5010E944519809123
:103CF000E601F80185838F2D6196EAE00C941B2A7A
:103D0000C114D10429F0822F83238F3F09F003C10E
:103D100080E0F82FF170DF2E80FF3CC08091180208
:103D20004091E70156E0841315C02D873E878D85AD
:103D30009E850E942C0C292F22952F702230F0F0A6
:103D4000243018F59F70F1F0F8019581907FD1F43F
:103D5000D12C1EC090E0589FF001599FF00D112406
:103D6000E851FE4F6181361306C06081261303C0FF
:103D70006281E6120FC001968770D5CF9F7011F057
:103D8000882331F3805E883018F3C8010E944519FA
:103D9000FD2CB1CFEE2009F4AECF8091E601816019
:103DA0008093E601F12CA7CF431306C0921304C001
:103DB000F801EE2009F479C0C8010E94E80C8823BC
:103DC00009F1EE20F9F08091E601803270F0209147
:103DD000E1013091E20138872F831986DB86CA869C
:103DE0008C87CE0107960E94451986E0F801A1EE66
:103DF000B1E001900D928A95E1F70E94D81DFF2451
:103E0000F39479CFC8010E944519F9CF51110AC026
:103E100081EE91E00E94451986E0F50111928A95A4
:103E2000E9F7C0CF43130FC092130DC0E1100BC0D0
:103E3000F8018583C8010E94451986E0F5011192B9
:103E40008A95E9F758CFC8010E94E80C8823D1F27F
:103E5000EE20C1F28091E601803238F22091E1013A
:103E60003091E2013A8329831B82DD82CC828E83EA
:103E7000CE010196B8CFE83CF105F8F6FE2CEE2015
:103E800009F243131FC092131DC08091E60180FD0B
:103E900010C0982F907F69F0F8018583903F31F032
:103EA000982F907F905F8F70892B8583C8010E9427
:103EB000451986E0F801A1EEB1E001900D928A95D6
:103EC000E1F719CFC8010E94E80C81118ECF8091D3
:103ED000E60181608093E601C8010E9445190BCF7D
:103EE000EE2009F48FCFC8010E94E80CF82E882339
:103EF00009F488CF86E0F801A1EEB1E001900D92BF
:103F00008A95E1F78091E1019091E2010E942C0CE9
:103F10000E94D81DF0CE81E08E25FBCEA7E1B0E057
:103F2000E4E9FFE10C94062A4B8B5C8B6D8B7E8B56
:103F30008F8B6111109222021A8A198A85E0FE0184
:103F40007396DE011D9601900D928A95E1F786E049
:103F5000FE013D96DE01179601900D928A95E1F7DC
:103F6000CE0107960E942D1E811112C086E0FE012F
:103F70003796DE01119601900D928A95E1F78A85B8
:103F80009B85892B29F088859F8189238F3F81F527
:103F900016E0809118029091E701891317C0679687
:103FA000E3E00C94222A96E0929FD001939FB00DFB
:103FB0001124A851BE4FFE01319601900D929A95A1
:103FC000E1F78093E7010E94EE0BE2CF819FC001F1
:103FD000112488519E4F0E942D1E882301F3809149
:103FE000180290E001968770992780931802D1CF2C
:103FF0002091E70130E0C90101968770992740912F
:1040000018024817190679F60E940B0E1092E70164
:104010001092180286E0E1EEF1E0DF011D928A9530
:10402000E9F7B6CFA0E1B0E0E8E1F0E20C94FC29BA
:104030008E01075F1F4F88E0D8011D928A95E9F72E
:1040400087E8C82E81E0D82EF12CE12CAA24A39475
:10405000B12C23E9822E21E0922EF60181916F018D
:104060008F3F09F442C0F894E82FE295EF70F0E03A
:1040700021A18F70A50102C0440F551F8A95E2F758
:10408000CA01922F982B91A392A18095892382A394
:10409000789400C0EBE8F1E0712C31E021912F3FE2
:1040A00009F46BC0A22FA295AF70B0E090968C91EE
:1040B00090E02F7002C0959587952A95E2F780FDD4
:1040C0005CC0832F782A330F8E169F0639F7F601CE
:1040D000319780818F3F11F00E94D80950EA5A959C
:1040E000F1F7F801EE0DFF1D70828FEFE81AF80A64
:1040F000A4E0EA16F10409F0B0CF48E050E0B801BE
:1041000083E692E00E945D2A009741F028E0F801E2
:10411000A3E6B2E001900D922A95E1F700916C02BE
:10412000892B69F181E0809327020E94DA1890932D
:1041300026028093250280912502909126020E94FA
:10414000CB18059700F110E00E581D4F44E050E0E9
:1041500063E672E0C8010E945D2AF12C892B51F0C0
:1041600084E0E3E6F2E0D80101900D928A95E1F750
:10417000FF24F3941092270207C080E0A3CF809120
:1041800027028111D8CFF12C0E94AC12E82EE091C9
:104190006C02882309F494C019821A821B821C8243
:1041A0000E2F10E00E581D4F80915C028A3008F0EF
:1041B00051C040EE56E1BE016F5F7F4FC8010E94C3
:1041C0007912882309F46BC047E856E1BE016F5F9E
:1041D0007F4FC8010E947912882309F460C04BEC1C
:1041E00054E1BE016F5F7F4FC8010E94791288239E
:1041F00009F455C044EB55E1BE016F5F7F4FC80124
:104200000E947912882309F44AC045E955E1BE01AC
:104210006F5F7F4FC8010E947912882309F43FC065
:1042200010925C0280916B0290E044E050E0BE018D
:104230006F5F7F4F8E589D4F0E945D2A21E0209333
:104240002E02892BF1F4E12C8E2D8F296096EDE062
:104250000C94182A80912802909129020E94CB1870
:10426000843F914008F0A5CF80912E02882359F316
:1042700084E0FE013196DF011D928A95E9F71092E4
:104280002E02E0916B02F0E0EE58FD4F89819A8199
:10429000AB81BC8180839183A283B383D5CF80918E
:1042A0005C028F3F31F08F5F80935C028A3008F4AC
:1042B000B9CF0E94DA189093290280932802D4CFB4
:1042C000F0E0EE58FD4F84E0ADE3B2E001900D92D6
:1042D0008A95E1F764E070E08DE392E00E94AB091B
:1042E00080933C024091880250E06091870270E028
:1042F0006D577D4FCE0101960E946A2A8981809375
:10430000420261E070E0CE0101960E94AB09809309
:1043100041028090430290904402A0904502B090E8
:10432000460280912A0290912B02A0912C02B0911A
:104330002D0288169906AA06BB06D1F080922A02A1
:1043400090922B02A0922C02B0922D020E94AC12ED
:1043500081110EC00E943B09861A970AA80AB90A61
:1043600080925D0290925E02A0925F02B092600223
:1043700088E0E7E4F2E0DE01119601900D928A9563
:10438000E1F72981822F86950A81DB80CC80188510
:1043900010924E021123A1F010FF0AC09091130356
:1043A00020FF15C091609093130360E00E94811478
:1043B00011FF06C020E04C2D6D2D802F0E943A1376
:1043C00080914F02882371F00E94B0113DCF9E7FF3
:1043D000909313038091D60281608093D6020E944D
:1043E0002E12E6CF0E9495112FCF1F921FB61F925B
:1043F00011248F939F93AF93BF93809124038111D6
:1044000013C08091250390912603A0912703B091BA
:1044100028034196A11DB11D809325039093260387
:10442000A0932703B0932803BF91AF919F918F91E1
:104430001F901FBE1F901895CDB7DEB72C970FB6F3
:10444000F894DEBF0FBECDBF85B7806885BF85B746
:10445000806885BF84B7877F84BF0FB6F894A8951E
:1044600080916000886180936000109260000FBEB0
:1044700080E890E00FB6F89480936100909361001B
:104480000FBE86ED99E09093B7018093B6010E942C
:10449000DD070E947E088091E20084608093E20044
:1044A0007894809136038823A1F01091E9001F7061
:1044B0009091EC00892F817090FD80E8182B10926C
:1044C000E9008091E80083FD0E94210E1F70109387
:1044D000E90082E084BD93E095BD9AEF97BD80939B
:1044E0006E0010925D0210925E0210925F021092B6
:1044F00060020E94AC1280933801809138018823B9
:1045000009F461C010924A018AE080934B010E9435
:10451000AC1281110E9481289091380181E0982786
:1045200090938702282F291B2093620290913801D3
:1045300080938802909138018093610280913801C4
:10454000811106C085E38093420186E68093410194
:1045500020914201E22FE295EF70F0E061A12F700F
:1045600081E090E0AC0101C0440F2A95EAF7342FB6
:104570003095362331A322A1242B22A3209141017F
:10458000E22FE295EF70F0E031A12F7001C0880FAB
:104590002A95EAF7982F9095932391A392A1892BBE
:1045A00082A38FE891E00197F1F700C0000010911D
:1045B000880269E872E042E451E081E4E82E81E09B
:1045C000F82EFB012CC08AE080934A019ECFDA01CD
:1045D0002D91AD01822F82958F7090E0DC01909635
:1045E0008C9190E02F7002C0959587952A95E2F7FF
:1045F0008170D7019D917D01292F22952F7030E088
:10460000D90190962C9130E09F7002C03595279586
:104610009A95E2F790E020FD92E0892B81938E2F0E
:10462000861B8117A0F2809138018091380194E0B7
:10463000811190E090936C0284E0891B80936B025F
:1046400084E30E94D80986EC0E94D80987E90E9479
:10465000D80984E90E94D8090BE811E073E9E72E34
:1046600071E0F72EF80181918F018F3F11F00E94C8
:10467000D809E016F106B1F788E0E2E7F2E0DF01E1
:10468000282F1D922A95E9F7E3E6F2E0DF011D925B
:104690008A95E9F790E080E00E94812A873E9E4F4C
:1046A00011F00E942B1782E090E00E94732A809301
:1046B0007A0284E090E00E94812A90936E028093B7
:1046C0006D0283E090E00E94732A90E00E94E30C68
:1046D00082E08093CF0280E8809343030E943B27CF
:1046E0006DE070E08FE393E00E946B11892BE9F598
:1046F0008091CF0263E070E081FDDBC08CE393E04A
:104700000E946B11892B89F56DE070E08CE293E0DB
:104710000E946B11892B49F50E943B09605A754133
:104720008F4F9F4F609318037093190380931A0360
:1047300090931B03E6E4F3E080E094E0DF019C014A
:104740001D9221503040E1F7F0934D07E0934C0764
:104750008FEF9FEF909345038093440381E0809314
:104760001D0380931C031092D00280916F0281116F
:1047700039C090E080E00E94812A873E9E4F21F060
:104780000E942B170E94B31488E090E00E947B2ABD
:10479000609313037093140380931503909316038F
:1047A0008091D60283608093D6026E7F71F40E945E
:1047B000B31488E090E00E947B2A60931303709307
:1047C000140380931503909316030E94C7098091E8
:1047D000130380FF04C060E086950E94811481E08D
:1047E00080936F020E94AC12811102C00E94842843
:1047F00089E391E0909321038093200350E4D52E28
:1048000022242394312C8091360300E112E185307B
:1048100009F48AC00E9412203BE7E32E32E0F32E17
:1048200042E7A42E42E0B42ED501F70191918D917B
:1048300023E832E02E173F0709F480C09817B1F340
:104840000E94AC12782E10E0D5010D915D01F701A8
:1048500081907F01801629F1C12C992493948026A0
:10486000882D8921B1F07720A1F0CE821F8391E0BD
:10487000802F892109F490E098870E94DA188160DE
:10488000782F9A8789874E815F8168858A850E9403
:104890008E1FC394990CF8E0CF12E2CFF701319745
:1048A00000831F5F183081F60E943B09EE24E394D9
:1048B00066C089E393E024CF80913603843029F1E8
:1048C0000E9495111092240388E190E00FB6F894AD
:1048D000A895809360000FBED092600083B7817F5F
:1048E000846083BF83B7816083BF7894889583B7E2
:1048F0008E7F83BF0FB6F894A89580916000886181
:1049000080936000109260000FBE80913503882371
:1049100059F00E941220E2E7F2E08191811195C2E4
:1049200092E0EA37F907C9F780913603853009F438
:10493000C3CF0E940B0E0E94CF126CCF981380CF72
:104940000E94DA188C018091700290917102081710
:104950001907A1F08FEF89838A831B820E94DA18DE
:104960008160782F9D838C8349815A816B818D81F1
:104970000E948E1F1093710200937002E12C0E941E
:10498000AC12B12CF12C80918802B81608F468C0E2
:10499000F1100E94DE0B80911D03882309F41FC1D2
:1049A0008091D1029091D2020E94CB18C29708F454
:1049B000F6C00E94DA189093D2028093D10286E466
:1049C00093E090934D0780934C070E94AC1288238C
:1049D00009F428C185ED97E00E94C00D8EEC97E0A8
:1049E0000E94C00D87EC97E00E94C00D8FEB97E00E
:1049F0000E94C00D80918D0290918E0220918B02B9
:104A000030918C02822B932B292F3327E0E0211544
:104A1000310511F0C901E8E09C0104E036952795C5
:104A20000A95E1F72115310511F0EC5FC9019C01F0
:104A300036952795369527952115310511F0EE5FAE
:104A4000C90196958795892B09F0EF5F8CE797E070
:104A5000E73008F087C0F0E0EF5EF44D0C944E2A8A
:104A60000B2D10E0F801EE5BFE4F8081E82FE29500
:104A7000EF70F0E0E0A1F0E08F7002C0F595E795EF
:104A80008A95E2F7E170D801AF5BBE4F2C91A22F5F
:104A9000A295AF70B0E090968C9190E02F7002C01C
:104AA000959587952A95E2F780FD52C080E08E2B80
:104AB000D801A757BD4FEC919E2F9370891709F429
:104AC00045C0EE0FEE0FE82BEC93C0908702CB0CA5
:104AD000EF70F0E0ED56FE4F0B571D4F8081D8016F
:104AE0009C91890F8C93A12C843084F0EC2DF0E004
:104AF000ED57FD4F80818F5F80830E94AC12A82EFE
:104B0000882341F160E08C2D0E94F812F801808129
:104B10008D3F84F4EC2DF0E0ED57FD4F8081815006
:104B200080830E94AC12A82E8823B9F061E08C2DFE
:104B30000E94F812D8018C91082E000C990B64E0A9
:104B400070E00E943A2AF8018083FA28B3941BCFC0
:104B500082E0ADCFAA24A394D9CFAA24A394EACF0C
:104B600087EB97E00E94C00D0E94CF12182F8CE6B1
:104B700097E010FF02C084E797E00E94C00D8CE52B
:104B800097E011FF02C084E697E00E94C00D8CE41C
:104B900097E012FF02C084E597E00E94C00D80916B
:104BA000440390914503892B09F078C080911C0340
:104BB0008823A9F00E943B09009118031091190362
:104BC00020911A0330911B03601B710B820B930B16
:104BD0006F3F7F4F8F4F9F4710F40E949511E11058
:104BE00001C0F1100E94B0110E94CF129091D30227
:104BF000891709F408CE8093D3020E943B0903CEA3
:104C00008FEA97E0AFCF83EA97E0ACCF8EE997E0E9
:104C1000A9CF89E997E0A6CF8FE897E0A3CF87E8EF
:104C200097E0A0CF80914C0790914D078654934018
:104C30009C013C5F21303440A0F020E034E0281B90
:104C4000390B4091440350914503ECE4F3E0280F05
:104C5000391F8217930740F0509345034093440354
:104C60009ECF20E034E0EDCF6491DC01AA5BBC4F25
:104C70007C91671781F06C93BC01A6E076956795EF
:104C8000AA95E1F7D10102C0AA0FBB1F6A95E2F70E
:104C9000BD014A2B572B01963196DBCF80911D0326
:104CA000882309F483CF8091D00281117FCF0E94A5
:104CB000B01120914403309145032115310509F4C9
:104CC00075CF80E0082F10E02101082E02C0440CAF
:104CD000551C0A94E2F7A20142235323452B11F4F9
:104CE0008F5FF0CF9091CF0290FF97C0880F880F11
:104CF000880F8093450110924801895F8093460197
:104D000087E08093490124E630E047E050E063E427
:104D100071E088E70E94DB27892B09F047CFA801C3
:104D200026E0440F551F2A95E1F78091CF0280FFBE
:104D300085C0EFE8F2E0DF012D2D1D922A95E9F7FD
:104D40008BEA91E09C878B8703EA11E0AB85BC85F9
:104D50006D91BC87AB87F80181918F01840F952FEE
:104D6000911D9C012A5B3C4F3901E62FF0E0E15791
:104D7000FD4F30E020E097E0992E921AC22C022ECF
:104D800001C0CC0C0A94EAF7530190E0D5018D9153
:104D90005D018C21692D691B6770862E062E000C23
:104DA000770BB82F01C0BB0F8A94EAF78B2E719551
:104DB000619571096770772701C086956A95EAF752
:104DC000882A8081882A80829F5F9830F9F62F5F39
:104DD0003F4F31962830310571F6EB85FC85E35B5A
:104DE000F14009F0B3CF04E610E020E430E04FE8F2
:104DF00052E060E488E70E94FC27892B09F0D6CEB8
:104E00004094509480914403909145034822592244
:104E10005092450340924403C9CE8295880F880F73
:104E20008074809345019801369527952093480119
:104E3000815C809346011092490165CF4A5B5C4FCB
:104E400004E610E020E430E0D4CF09BD19BD09B478
:104E500000FEFDCF8091D8008F7D8093D800809197
:104E6000E00082608093E0008091E00081FDFCCF53
:104E70000E940B0E59CD1092B9008CE08093B800BF
:104E80000895B0E0A0E0E7E4F7E20C94FE29B82E24
:104E9000EB010E94DA186C01EE24E394F12CC4318A
:104EA000D10560F025E0E22EF12CCF3FDC0731F098
:104EB000CE0164E170E00E94E3297B0184EAA82E20
:104EC00094E8992E1092BC00A092BC000E94DA18BF
:104ED0008C018091BC0087FF0DC08091B900887F54
:104EE0008830F9F08091B900887F8031D1F00FEFE0
:104EF0001FEF08C0C8010E94CB18E816F90648F752
:104F00000EEF1FEFCF3FDC07E9F2C6010E94CB187E
:104F1000C817D907B8F6C801CDB7DEB7EBE00C94D7
:104F20001A2AB092BB009092BC000E94DA188C0141
:104F30008091BC0087FF0AC08091B900887F8831CA
:104F400011F08034A1F610E000E0E5CFC8010E9426
:104F5000CB18E816F90660F7D3CF0F931F93CF93C2
:104F6000DF93EB018093BB0084E88093BC000E9438
:104F7000DA188C018091BC0087FF11C02091B90024
:104F8000287F81E090E0283211F490E080E0919554
:104F900081959109DF91CF911F910F910895CF3F96
:104FA000DC0741F3C8010E94CB18C817D90710F7D6
:104FB0008EEF9FEFEFCFB0E0A0E0E1EEF7E20C94D0
:104FC000012A6B018A017901B9010E944127E6019A
:104FD0000C0D1D1DC017D10711F097FF08C024E963
:104FE0002093BC00CDB7DEB7E8E00C941D2AB701D2
:104FF00089910E94AD27EECFB0E0A0E0E2E0F8E2B8
:105000000C94012AC62F6A017901B8010E94412738
:1050100097FD0CC0B8018C2F0E94AD27E601EC0C67
:10502000FD1CCE15DF0511F097FF08C024E9209381
:10503000BC00CDB7DEB7E8E00C941D2AB801899119
:105040000E94AD27EECF84E98093BC0008958EE1E5
:105050004A9B02C08150E1F74A9BFECF08955A98BF
:1050600080E28A95F1F75A9A0895FC013BE03A955F
:10507000F1F798E020E080E031E040E14A95F1F777
:10508000880F4A9B02C08160232742E04A95F1F7CE
:10509000000040E14A95F1F7915079F790E19A9537
:1050A000F1F799B132E03A95F1F7000040E14A9505
:1050B000F1F792FB992790F992272081920F908324
:1050C0000895A1E0B0E0E7E6F8E20C94032A198223
:1050D0008C017C01E60EF11C0E151F0541F481E0E8
:1050E0009981911180E02196E6E00C941F2A0E949C
:1050F0002728CE0101960E943528F80181938F015F
:10510000EBCF529A5A9A089552985A9AEA9AE9E637
:10511000F0E080818F7C808308956150770B91E06F
:1051200001C0990F6A95EAF720E031E0911108C0BB
:10513000222391F05A9A80E28A95F1F75A980895BD
:10514000492F482339F05A9A232740E24A95F1F72C
:105150009695ECCF5A98F9CF5A98EDCFFF920F93CE
:105160001F93CF93DF93EC018C01060F111DC01725
:10517000D10729F4CDB7DEB7E5E00C94202AF990E9
:105180000E942F2868E08F2D0E948D28F0CF1F925B
:105190000F920FB60F9211240F931F932F933F93EB
:1051A0004F935F936F937F938F939F93AF93BF932F
:1051B000EF93FF93CF93DF930F92CDB7DEB71982B2
:1051C0000E942728CE0101960E943528082F0695B7
:1051D00006950695282F22952570902F9570290FFA
:1051E000922F937026952695920F98279770898114
:1051F000982B09F05CC0083008F059C080E18A950E
:10520000F1F75A9A529A82E08A95F1F700C05A98BB
:1052100088E0089F80011124D801A050BF4F169646
:10522000ED91FC9117973097A9F0609185017091ED
:10523000860114962D913C911597260F371F1196D4
:105240008D919C911297680F791F13964C9113972B
:105250008C910995F801E050FF4F6381662351F06E
:10526000209185013091860184819581820F931F61
:105270000E94AE280E942F2880E18A95F1F75A9863
:1052800052985A9A80E18A95F1F7F801E050FF4F61
:105290006081662351F020918501309186018181E2
:1052A0009281820F931F0E9461280E9427280F90ED
:1052B000DF91CF91FF91EF91BF91AF919F918F912E
:1052C0007F916F915F914F913F912F911F910F911E
:1052D0000F900FBE0F901F9018950F931F93CF93B1
:1052E000DF93EC0108970CF04CC0F894529A5A984E
:1052F00085E08A95F1F700009C2F969595708C2F8C
:105300008570980F892F83709695969523E0CC0F22
:10531000DD1F2A95E1F7980F8E01092B0E942F2897
:1053200000C068E0802F0E948D2880E18A95F1F707
:1053300052985A9A4A9B1EC087E090E04A991CC036
:10534000FE01E050FF4F63816623F9F02091850153
:105350003091860184819581820F931F0E9461287C
:10536000811113C0529A5A9A7894DF91CF911F916C
:105370000F91089500C0DECF019729F4529A5A9AEE
:10538000789480E0F2CF00C0D9CF0E94272880E235
:105390008A95F1F75A98529A80E18A95F1F7C050B0
:1053A000DF4F6881662351F020918501309186019D
:1053B00089819A81820F931F0E94AE280E942F2814
:1053C000789481E0D2CFAA1BBB1B51E107C0AA1F72
:1053D000BB1FA617B70710F0A61BB70B881F991F96
:1053E0005A95A9F780959095BC01CD0108952F920B
:1053F0003F924F925F926F927F928F929F92AF9265
:10540000BF92CF92DF92EF92FF920F931F93CF93B1
:10541000DF93CDB7DEB7CA1BDB0B0FB6F894DEBF48
:105420000FBECDBF09942A88398848885F846E846E
:105430007D848C849B84AA84B984C884DF80EE80B8
:10544000FD800C811B81AA81B981CE0FD11D0FB6C1
:10545000F894DEBF0FBECDBFED010895991B79E032
:1054600004C0991F961708F0961B881F7A95C9F7F4
:105470008095089597FB072E16F4009407D077FDCA
:1054800009D00E94E32907FC05D03EF49095819550
:105490009F4F0895709561957F4F0895EE0FFF1F00
:1054A0000590F491E02D0994FB01DC0102C0059008
:1054B0000D9241505040D8F70895FB01DC0104C023
:1054C0008D910190801921F441505040C8F7881BFC
:1054D000990B0895FB01DC0102C001900D9241502F
:1054E0005040D8F70895F999FECF92BD81BDF89A42
:1054F000992780B50895A6E1B0E044E050E00C940F
:10550000AD2AA8E1B0E042E050E00C94AD2A262F8D
:10551000F999FECF92BD81BDF89A019700B40216A9
:1055200039F01FBA20BD0FB6F894FA9AF99A0FBE57
:1055300008950396272F0E94882A0E94872A252FE4
:105540000E94882A242F0C94882A0196272F0E94D3
:10555000882A0C94872ADC01CB01FC01F999FECF43
:1055600006C0F2BDE1BDF89A319600B40D924150EB
:105570005040B8F70895F894FFCF000F280FC010DF
:10558000280FC0105B0F7C0FC010791086108D198A
:10559000911973198919951999199D19F8196D1A85
:1055A000001ACA19CE19041AD219081A141ADE19C7
:1055B000661AE219181AE6191C1A441AEA19201A6E
:1055C0004B1AF019261A2E1AD6190C1ADA19101AB3
:1055D000F4192A1A3A1A541A641AC419FC19741ABA
:1055E000771B771BB01BB01B571CDE1BDE1BDE1BA3
:1055F000711CF91C081D081D901AB11AB81ABD1AA1
:10560000C21AC71ACC1AD11AD61ADB1AE01AE51A2E
:1056100079197919791979197919791979197919FA
:105620007919B02500260326062609260C260F2602
:105630000000000100000000000000040100000064
:10564000000000010500000000000001060000004D
:105650000407000000000000080B0000000000002C
:1056600001130000000000000138091A1237091365
:105670001235660021007F22000700140014140177
:10568000818283E200E900EA00B500B600B700CDF0
:10569000008301CC008A019201940121022302249B
:1056A000022502260227022A02B300B4006F00700E
:1056B000009F01CB013C0234C6979436323331F758
:1056C000F6F5F400FF0100010000FFFF00000100FB
:1056D00001FF000008101820283038383028201822
:0656E000100800000100AB
:00000001FF
